:100000000C94DB000C9403010C9403010C94A71EC8
:100010000C94A71E0C94A71E0C9403010C940301CE
:100020000C9403010C9403010C9403010C94030140
:100030000C9403010C9403010C9403010C94030130
:100040000C94AA1F0C9403010C94A2220C94D422A9
:100050000C9403010C9403010C9403010C94030110
:100060000C9408160C940301036EDB363D9A9999A3
:10007000993DABAAAA2A3E000000803F084AD73B20
:100080003BCE016E84BCBFFDC12F3D6C74319ABD67
:1000900056833DDA3D00C77F11BED9E4BB4C3E918B
:1000A0006BAAAABE000000803F072C7AA5BA6CC5D7
:1000B00090DA3B9365FC8BBC53F810FD3C56928361
:1000C0004DBD879D3AB63DCBC9BF5BBE73DA0FC944
:1000D0003F07634236B79BD8A71A39685618AEBA9D
:1000E000AB558C1D3CB7CC5763BD6DEDFD753EF631
:1000F000177231BF000000803F08000000BE92244C
:1001000049123EABAAAA2ABECDCCCC4C3E00000080
:1001100080BEABAAAAAA3E00000000BF000000807B
:100120003F0000000000084178D3BB4387D1133D56
:10013000190E3CC3BD4282AD2B3E68EC8276BED91F
:100140008FE1A93E4C80EFFFBE01C4FF7F3F00005E
:100150000000000000000008000201000003040786
:100160000000000000000000010204081020408090
:1001700001020408102001020408102004040404F1
:100180000404040402020202020203030303030341
:1001900000000000230026002900000000002500C8
:1001A00028002B0000000000240027002A00D411A2
:1001B00026150423E71111241FBECFEFD8E0DEBFC0
:1001C000CDBF11E0A0E0B1E0E6E9FAE502C005909C
:1001D0000D92A639B107D9F724E0A6E9B1E001C034
:1001E0001D92AC32B207E1F711E0C4EBD1E004C0DC
:1001F0002297FE010E94F32ACE3AD107C9F70E9446
:1002000048230C943E2D0C940000CF92DF92EF9285
:10021000FF920F931F93CF93DF9300D000D000D0B5
:10022000CDB7DEB784E0C82ED12C95E0E92EF12CB5
:1002300000E010E020E030E040E050E060E070E0FE
:1002400087ED91E00E94A51A60E070E087ED91E0F3
:100250000E94241A60E070E087ED91E00E94DB19B3
:1002600060E070E087ED91E00E94431A67E070E083
:1002700087ED91E00E94621A63E070E087ED91E003
:100280000E947B1A64E070E087ED91E00E94FA1909
:1002900062E070E087ED91E00E948D1A4DE452E03B
:1002A00061E472E087ED91E00E94AB1B6FE170E0CA
:1002B00089EB91E00E94F01167E171E0CE010196B7
:1002C0000E94DA25E12CF12C02E010E021E030E080
:1002D00041E0BE016F5F7F4F89EB91E00E94081201
:1002E000CE0101960E946C2589EB91E00E94CC1210
:1002F00026960FB6F894DEBF0FBECDBFDF91CF912B
:100300001F910F91FF90EF90DF90CF9008958F9203
:100310009F92AF92BF92CF92DF92EF92FF924B01EA
:100320005C0169017A0120E030E0A901C701B60152
:100330000E94B0281816FCF4A7019601C501B4016B
:100340000E9414270E94E82620EE3EE245E652E491
:100350000E94BB289B01AC0160E070E084EB92E45A
:100360000E94322660936502709366028093670252
:100370009093680239C020E030E0A901C701B601BE
:100380000E94102787FF12C0A7019601C501B40182
:100390000E9414270E94E82620EE3EE245E652E441
:1003A0000E94BB28DC01CB01B0580DC020E030E03A
:1003B000A901C501B4010E94102787FF0DC080E08C
:1003C00090E0A4E3B3E48093650290936602A09367
:1003D0006702B093680208C010926502109266022C
:1003E000109267021092680267E271E08AE991E078
:1003F0000E949723409165025091660260916702C6
:100400007091680222E030E08AE991E0FF90EF907D
:10041000DF90CF90BF90AF909F908F900C945A2513
:100420004F925F926F927F928F929F92AF92BF9204
:10043000CF92DF92EF92FF920F931F93CF93DF93B0
:10044000CDB7DEB728970FB6F894DEBF0FBECDBF8D
:100450002B013C0149015A0167017801C501B40132
:100460000E94BB280E946E296D837E838F839887AC
:10047000A7019601C701B6010E94BB2869837A8350
:100480008B839C839B01AC016D817E818F819885DC
:100490000E9433269B01AC01C301B2010E94BD261C
:1004A0006B017C01A3019201C301B2010E94BB2830
:1004B0000E946E2929813A814B815C810E943326FA
:1004C0009B01AC01C501B4010E94BD264B015C013A
:1004D00020EE3EE245E652E4C701B6010E94BB2889
:1004E000609371027093720280937302909374020E
:1004F00020EE3EE245E652E4C501B4010E94BB286D
:100500006093690270936A0280936B0290936C020D
:1005100061E371E08AE991E00E94972340917102C2
:1005200050917202609173027091740222E030E087
:100530008AE991E00E9458256FE371E08AE991E031
:100540000E9497234091690250916A0260916B0268
:1005500070916C0222E030E08AE991E028960FB6B3
:10056000F894DEBF0FBECDBFDF91CF911F910F91E9
:10057000FF90EF90DF90CF90BF90AF909F908F90C3
:100580007F906F905F904F900C945A254F925F929E
:100590006F927F928F929F92AF92BF92CF92DF9293
:1005A000EF92FF920F931F93CF93DF93CDB7DEB7F8
:1005B000CC56D1090FB6F894DEBF0FBECDBF25963D
:1005C0006CAF7DAF8EAF9FAF259729962CAF3DAF17
:1005D0004EAF5FAF29972D96ECAEFDAE0EAF1FAFBD
:1005E0002D97209107013091080140910901509108
:1005F0000A012DA73EA74FA758AB80910B01909100
:100600000C01A0910D01B0910E0189A39AA3ABA397
:10061000BCA320910F013091100140911101509124
:100620001201298F3A8F4B8F5C8F8091130190912B
:100630001401A0911501B0911601898B9A8BAB8B97
:10064000BC8B25962CAD3DAD4EAD5FAD2597CA0157
:10065000B9010E94BB282B013C0129962CAD3DAD70
:100660004EAD5FAD2997CA01B9010E94BB289B011D
:10067000AC01C301B2010E9433262B013C01A80149
:100680009701C801B7010E94BB289B01AC01C301BF
:10069000B2010E9433260E946E292B013C0120E00A
:1006A00030E0A9010E941027882311F40C94ED0D6D
:1006B000C957DF4F288139814A815B81C758D040B3
:1006C000CA01B9010E94BB2869877A878B879C87FA
:1006D000C557DF4F288139814A815B81CB58D04093
:1006E000CA01B9010E94BB289B01AC0169857A85CA
:1006F0008B859C850E94332669877A878B879C87A8
:10070000C157DF4F288139814A815B81CF58D04062
:10071000CA01B9010E94BB289B01AC0169857A8599
:100720008B859C850E9433260E946E2969877A8773
:100730008B879C8720E030E0A9010E941027882346
:1007400011F40C94ED0D2DA53EA54FA558A9CA0195
:10075000B9010E9433266D877E878F87988B29A1E8
:100760003AA14BA15CA1CA01B9010E94332665964A
:100770006CAF7DAF8EAF9FAF6597298D3A8D4B8D56
:100780005C8DCA01B9010E94332669966CAF7DAFBA
:100790008EAF9FAF699729893A894B895C89CA01D5
:1007A000B9010E943326A9966CAF7DAF8EAF9FAF83
:1007B000A9972DA53EA54FA558A9CA01B9010E9428
:1007C000BB2861966CAF7DAF8EAF9FAF619729A1BB
:1007D0003AA14BA15CA16DA57EA58FA598A90E9409
:1007E000BB2821966CAF7DAF8EAF9FAF2197298D2F
:1007F0003A8D4B8D5C8D6DA57EA58FA598A90E9425
:10080000BB28AD966CAF7DAF8EAF9FAFAD9729A1E2
:100810003AA14BA15CA1CA01B9010E94BB2869AFF2
:100820007AAF8BAF9CAF29893A894B895C8969A1E2
:100830007AA18BA19CA10E94BB286DAB7EAB8FAB34
:1008400098AF298D3A8D4B8D5C8DCA01B9010E94FC
:10085000BB286DA37EA38FA398A729893A894B89CA
:100860005C89CA01B9010E94BB2869AB7AAB8BAB2A
:100870009CABA301920160E070E080E89FE30E94DE
:100880001427A1966CAF7DAF8EAF9FAFA19729853E
:100890003A854B855C8560E070E080E89FE30E94CC
:1008A00014272B013C019B01AC01C957DF4F688124
:1008B00079818A819B81C758D0400E94BB286D8B6B
:1008C0007E8B8F8B988FA3019201C557DF4F688174
:1008D00079818A819B81CB58D0400E94BB2869874F
:1008E0007A878B879C87A3019201C157DF4F68816C
:1008F00079818A819B81CF58D0400E94BB282B01EF
:100900003C012D893E894F89588D6D857E858F8567
:1009100098890E94BB286D837E838F839887298561
:100920003A854B855C856D857E858F8598890E948B
:10093000BB2869A77AA78BA79CA7A30192016D8505
:100940007E858F8598890E94BB2869837A838B83F3
:100950009C832D893E894F89588D65966CAD7DAD00
:100960008EAD9FAD65970E94BB286D966CAF7DAF35
:100970008EAF9FAF6D9761962CAD3DAD4EAD5FAD27
:1009800061976D897E898F89988D0E94BB286D8FB4
:100990007E8F8F8F98A329893A894B895C8969A5B5
:1009A0007AA58BA59CA50E94BB289B01AC016D8DEF
:1009B0007E8D8F8D98A10E9432266D8F7E8F8F8FB6
:1009C00098A3298D3A8D4B8D5C8D69817A818B81BD
:1009D0009C810E94BB289B01AC016D8D7E8D8F8D0B
:1009E00098A10E9433266D8F7E8F8F8F98A329AD9B
:1009F0003AAD4BAD5CAD6D897E898F89988D0E9433
:100A0000BB289B01AC016D8D7E8D8F8D98A10E94BE
:100A100033266D8F7E8F8F8F98A329853A854B85DE
:100A20005C8565966CAD7DAD8EAD9FAD65970E9482
:100A3000BB28298D3A8D4B8D5C8D0E94BB289B0174
:100A4000AC016D8D7E8D8F8D98A10E9433266D8FA8
:100A50007E8F8F8F98A3A301920165966CAD7DADBB
:100A60008EAD9FAD65970E94BB2829893A894B8935
:100A70005C890E94BB289B01AC016D8D7E8D8F8DA2
:100A800098A10E9433266D8F7E8F8F8F98A32DA102
:100A90003EA14FA158A56D897E898F89988D0E94AE
:100AA000BB289B01AC016D8D7E8D8F8D98A10E941E
:100AB00032266D8F7E8F8F8F98A329A93AA94BA9D3
:100AC0005CA96D897E898F89988D0E94BB289B01C6
:100AD000AC016D8D7E8D8F8D98A10E9432266D8F19
:100AE0007E8F8F8F98A329893A894B895C896D8184
:100AF0007E818F8198850E94BB28A5966CAF7DAFC3
:100B00008EAF9FAFA59761962CAD3DAD4EAD5FAD5D
:100B1000619769857A858B859C850E94BB289B019E
:100B2000AC01A5966CAD7DAD8EAD9FADA5970E9435
:100B30003326A5966CAF7DAF8EAF9FAFA59729A149
:100B40003AA14BA15CA169817A818B819C810E9431
:100B5000BB289B01AC01A5966CAD7DAD8EAD9FAD64
:100B6000A5970E94322669837A838B839C83298D83
:100B70003A8D4B8D5C8D6D966CAD7DAD8EAD9FAD20
:100B80006D970E94BB289B01AC0169817A818B81A2
:100B90009C810E94332669837A838B839C8329AD51
:100BA0003AAD4BAD5CAD69857A858B859C850E949D
:100BB000BB289B01AC0169817A818B819C810E9459
:100BC000322669837A838B839C832DA13EA14FA11A
:100BD00058A569857A858B859C850E94BB289B01D9
:100BE000AC0169817A818B819C810E943326698363
:100BF0007A838B839C83A301920169966CAD7DAD52
:100C00008EAD9FAD69970E94BB2829893A894B898F
:100C10005C890E94BB289B01AC0169817A818B8130
:100C20009C810E94332669837A838B839C8329A9C4
:100C30003AA94BA95CA969857A858B859C850E9418
:100C4000BB289B01AC0169817A818B819C810E94C8
:100C5000322669837A838B839C832D8D3E8D4F8DC5
:100C600058A1CA01B9010E94BB286D8F7E8F8F8F5A
:100C700098A329813A814B815C81CA01B9010E9404
:100C8000BB289B01AC016D8D7E8D8F8D98A10E943C
:100C900033260E946E2969837A838B839C836D81BE
:100CA0007E818F8198859058298D3A8D4B8D5C8DF2
:100CB0000E94BB286D837E838F83988729A13AA1E8
:100CC0004BA15CA169A57AA58BA59CA50E94BB2818
:100CD0009B01AC016D817E818F8198850E943326B6
:100CE0006D837E838F83988761962CAD3DAD4EAD2D
:100CF0005FAD6197C301B2010E94BB289B01AC01AB
:100D00006D817E818F8198850E9433266D837E83DD
:100D10008F83988729893A894B895C896D966CAD58
:100D20007DAD8EAD9FAD6D970E94BB289B01AC0140
:100D30006D817E818F8198850E9433266D837E83AD
:100D40008F83988729AD3AAD4BAD5CADC301B2013D
:100D50000E94BB289B01AC016D817E818F819885AB
:100D60000E9432266D837E838F83988729853A85FA
:100D70004B855C8569966CAD7DAD8EAD9FAD6997F9
:100D80000E94BB2829893A894B895C890E94BB282B
:100D90009B01AC016D817E818F8198850E943326F5
:100DA0006D837E838F8398872DA13EA14FA158A587
:100DB000C301B2010E94BB289B01AC016D817E8101
:100DC0008F8198850E9432266D837E838F839887DA
:100DD00029A93AA94BA95CA9C301B2010E94BB2869
:100DE0009B01AC016D817E818F8198850E943326A5
:100DF0006D837E838F8398879B01AC010E9433268D
:100E000061966CAF7DAF8EAF9FAF61972DA93EA964
:100E10004FA958ADCA01B9010E94332669A77AA724
:100E20008BA79CA7298D3A8D4B8D5C8D6D857E851A
:100E30008F8598890E94BB289B01AC0169A57AA582
:100E40008BA59CA50E94322669A77AA78BA79CA791
:100E5000A1962CAD3DAD4EAD5FADA19725966CAD85
:100E60007DAD8EAD9FAD25970E94BB289B01AC0147
:100E700069A57AA58BA59CA50E94322625966CAF04
:100E80007DAF8EAF9FAF259721962CAD3DAD4EAD7A
:100E90005FAD2197CA01B9010E94332669A77AA7DD
:100EA0008BA79CA729893A894B895C8969966CAD87
:100EB0007DAD8EAD9FAD69970E94BB289B01AC01B3
:100EC00069A57AA58BA59CA50E94332669A77AA758
:100ED0008BA79CA7A1962CAD3DAD4EAD5FADA19764
:100EE00029966CAD7DAD8EAD9FAD29970E94BB2834
:100EF0009B01AC0169A57AA58BA59CA50E94322611
:100F000029966CAF7DAF8EAF9FAF2997298D3A8D13
:100F10004B8D5C8D6D817E818F8198850E94BB2871
:100F20006D966CAF7DAF8EAF9FAF6D972DA13EA13B
:100F30004FA158A560E070E080E09FE30E94322658
:100F400029A93AA94BA95CA90E9432269B01AC01B0
:100F500069817A818B819C810E94BB2869AB7AABC5
:100F60008BAB9CABAD962CAD3DAD4EAD5FADAD97B3
:100F70006DA97EA98FA998AD0E9432269B01AC0174
:100F80006D817E818F8198850E94BB289B01AC0179
:100F900069A97AA98BA99CA90E9433262D893E892B
:100FA0004F89588D0E9432266D8B7E8B8F8B988F48
:100FB00029813A814B815C81505829A73AA74BA7D8
:100FC0005CA729A13AA14BA15CA16D817E818F8193
:100FD00098850E94BB286D8F7E8F8F8F98A3298D57
:100FE0003A8D4B8D5C8D69A17AA18BA19CA10E9449
:100FF000BB2869AB7AAB8BAB9CAB29893A894B890F
:101000005C896DA57EA58FA598A90E94BB289B0130
:10101000AC0169A97AA98BA99CA90E9432269B01DF
:10102000AC0169817A818B819C810E94BB2869AB6C
:101030007AAB8BAB9CAB29893A894B895C89698DEA
:101040007A8D8B8D9C8D0E94BB289B01AC012196D3
:101050006CAD7DAD8EAD9FAD21970E9433269B0177
:10106000AC016D817E818F8198850E94BB289B0198
:10107000AC0169A97AA98BA99CA90E94332629856C
:101080003A854B855C850E94322669877A878B87F3
:101090009C87298D3A8D4B8D5C8D69817A818B81FE
:1010A0009C810E94BB2821966CAF7DAF8EAF9FAF15
:1010B00021972DA93EA94FA958ADAD966CAD7DAD38
:1010C0008EAD9FADAD970E9433269B01AC01698127
:1010D0007A818B819C810E94BB286DAB7EAB8FABEC
:1010E00098AF29AD3AAD4BAD5CAD60E070E080E00B
:1010F0009FE30E9432262DA13EA14FA158A50E9438
:1011000032269B01AC016D817E818F8198850E9482
:10111000BB289B01AC016DA97EA98FA998AD0E9447
:101120003326A30192010E9432266DAB7EAB8FABBA
:1011300098AF69966CAD7DAD8EAD9FAD69979058B7
:1011400025962CAD3DAD4EAD5FAD25970E94BB28D9
:101150002B013C0129962CAD3DAD4EAD5FAD2997DD
:1011600065966CAD7DAD8EAD9FAD65970E94BB2839
:101170009B01AC01C301B2010E9433262B013C014B
:101180002D893E894F89588D6D966CAD7DAD8EADA4
:101190009FAD6D970E94BB289B01AC01C301B201BA
:1011A0000E9432262B013C0129893A894B895C89AE
:1011B00069A57AA58BA59CA50E94BB282D8D3E8D87
:1011C0004F8D58A10E94332629853A854B855C8531
:1011D0000E94BB289B01AC01C301B2010E943326CF
:1011E0002B013C012DA93EA94FA958AD21966CAD0C
:1011F0007DAD8EAD9FAD21970E94BB289B01AC01B8
:10120000C301B2010E94332669AB7AAB8BAB9CABB6
:1012100029AD3AAD4BAD5CADCA01B9010E94332690
:101220009B01AC0160E070E080E89FE30E94322601
:101230002B013C012DA13EA14FA158A5CA01B90126
:101240000E9433269B01AC01C301B2010E943226E9
:101250002B013C01A1962CAD3DAD4EAD5FADA197EC
:10126000C801B7010E94BB289B01AC01C301B201B8
:101270000E9432262B013C0129893A894B895C89DD
:101280006D817E818F8198850E94BB2869AF7AAF7E
:101290008BAF9CAF2DA53EA54FA558A96D817E8132
:1012A0008F8198850E94BB282D966CAF7DAF8EAF45
:1012B0009FAF2D9725962CAD3DAD4EAD5FAD2597DB
:1012C000A9966CAD7DAD8EAD9FADA9970E94BB2850
:1012D0006D837E838F83988729962CAD3DAD4EAD6F
:1012E0005FAD29976D857E858F8598890E94BB2883
:1012F0009B01AC016D817E818F8198850E94332690
:101300006D837E838F83988720E030E040E850E44F
:1013100069A17AA18BA19CA10E94BB28A301920183
:101320000E94BB289B01AC016D817E818F819885D5
:101330000E9432266D837E838F8398872D893E8914
:101340004F89588D69AD7AAD8BAD9CAD0E94BB289D
:101350009B01AC016D817E818F8198850E9433262F
:101360006D837E838F8398872D962CAD3DAD4EADDA
:101370005FAD2D9721966CAD7DAD8EAD9FAD219764
:101380000E94332629853A854B855C850E94BB28BF
:101390009B01AC016D817E818F8198850E943326EF
:1013A0006D837E838F83988729893A894B895C89ED
:1013B00069817A818B819C810E94BB286DA37EA369
:1013C0008FA398A729A13AA14BA15CA161966CAD0E
:1013D0007DAD8EAD9FAD61970E94BB289B01AC0196
:1013E0006DA17EA18FA198A50E9432262DA93EA9AC
:1013F0004FA958AD0E94BB289B01AC016D817E8135
:101400008F8198850E9433266DA37EA38FA398A712
:1014100029813A814B815C81CA01B9010E9433263E
:101420009B01AC0150582D833E834F83588729A1DF
:101430003AA14BA15CA169817A818B819C810E9438
:10144000BB2821966CAF7DAF8EAF9FAF21976D8586
:101450007E858F859889905825962CAD3DAD4EADF3
:101460005FAD25970E94BB286D877E878F87988BFD
:1014700029962CAD3DAD4EAD5FAD2997A9966CADCB
:101480007DAD8EAD9FADA9970E94BB289B01AC019D
:101490006D857E858F8598890E9433266D877E872E
:1014A0008F87988B20E030E040E850E4698D7A8D9A
:1014B0008B8D9C8D0E94BB28A30192010E94BB28AA
:1014C0009B01AC016D857E858F8598890E943226AF
:1014D0002B013C01298D3A8D4B8D5C8D6D817E8178
:1014E0008F8198850E94BB282D962CAD3DAD4EADC9
:1014F0005FAD2D970E9432262D893E894F89588DE8
:101500000E94BB289B01AC01C301B2010E9433269B
:101510002B013C0129AD3AAD4BAD5CAD21966CADD4
:101520007DAD8EAD9FAD21970E94332629853A85EA
:101530004B855C850E94BB289B01AC01C301B201B5
:101540000E9433266D877E878F87988B2DA53EA5B9
:101550004FA558A969817A818B819C810E94BB2803
:101560002B013C01298D3A8D4B8D5C8D61966CADC4
:101570007DAD8EAD9FAD61970E94BB289B01AC01F4
:10158000C301B2010E9432262DA93EA94FA958AD30
:101590000E94BB289B01AC016D857E858F85988953
:1015A0000E9433262B013C0125962CAD3DAD4EAD5E
:1015B0005FAD259765966CAD7DAD8EAD9FAD6597A2
:1015C0000E94BB2869837A838B839C8329962CADE8
:1015D0003DAD4EAD5FAD299769966CAD7DAD8EADDD
:1015E0009FAD69970E94BB289B01AC0169817A81FC
:1015F0008B819C810E94332669837A838B839C83B1
:1016000029893A894B895C896D817E818F81988592
:101610000E94BB282D8D3E8D4F8D58A10E943326F0
:101620002D893E894F89588D0E94BB289B01AC01B2
:1016300069817A818B819C810E94332669837A83B8
:101640008B839C832DA53EA54FA558A969A57AA596
:101650008BA59CA50E94BB286D962CAD3DAD4EADD3
:101660005FAD6D970E94332629853A854B855C8551
:101670000E94BB289B01AC0169817A818B819C818E
:101680000E94332669837A838B839C832DA93EA98C
:101690004FA958AD21966CAD7DAD8EAD9FAD219714
:1016A0000E94BB289B01AC0169817A818B819C815E
:1016B0000E94332669877A878B879C8729A93AA954
:1016C0004BA95CA9CA01B9010E94BB2869837A832E
:1016D0008B839C832DA13EA14FA158A5CA01B901BE
:1016E0000E94BB289B01AC0169817A818B819C811E
:1016F0000E94332669837A838B839C83A3019201A2
:10170000C301B2010E94BB289B01AC0169817A81AF
:101710008B819C810E94332669837A838B839C838F
:1017200029853A854B855C85CA01B9010E94BB2891
:101730009B01AC0169817A818B819C810E94332657
:101740000E946E299B01AC0160E070E080E89FE39D
:101750000E9414276D837E838F8398878091610216
:1017600090916202A0916302B091640289839A838E
:10177000AB83BC8369A17AA18BA19CA19058A601DF
:1017800095010E94BB286D8B7E8B8F8B988FC158E3
:10179000DF4F288139814A815B81CF57D040698DE5
:1017A0007A8D8B8D9C8D0E94BB289B01AC016D892D
:1017B0007E898F89988D0E9432266D8B7E8B8F8BD0
:1017C000988FCD57DF4F288139814A815B81C3587B
:1017D000D04069897A898B899C890E94BB289B01AA
:1017E000AC016D897E898F89988D0E94322620E018
:1017F00030E040E05FE30E94BB286D8B7E8B8F8BD7
:10180000988F2D813E814F81588569A97AA98BA92E
:101810009CA90E94BB282DE037EC4AE15FE30E94BF
:10182000BB289B01AC016D897E898F89988D0E94B0
:10183000322629813A814B815C810E94BB289B0121
:10184000AC016DA57EA58FA598A90E9433266D8B4E
:101850007E8B8F8B988FA60195016DA57EA58FA598
:1018600098A90E94BB286D877E878F87988BCD575C
:10187000DF4F288139814A815B81C358D040698D0F
:101880007A8D8B8D9C8D0E94BB289B01AC016D8550
:101890007E858F8598890E9433266D877E878F8706
:1018A000988BC158DF4F288139814A815B81CF579E
:1018B000D04069897A898B899C890E94BB289B01C9
:1018C000AC016D857E858F8598890E94322620E047
:1018D00030E040E05FE30E94BB286D877E878F8702
:1018E000988B2D813E814F8158856DA17EA18FA15E
:1018F00098A50E94BB282DE037EC4AE15FE30E94E7
:10190000BB289B01AC016D857E858F8598890E94DF
:10191000322629813A814B815C810E94BB289B0140
:10192000AC0169A17AA18BA19CA10E9433266DA371
:101930007EA38FA398A7C158DF4F288139814A81A0
:101940005B81CF57D0406DA57EA58FA598A90E9439
:10195000BB286D877E878F87988BCD57DF4F288177
:1019600039814A815B81C358D04069A17AA18BA19A
:101970009CA10E94BB289B01AC016D857E858F8553
:1019800098890E9432266D877E878F87988BA60163
:10199000950169897A898B899C890E94BB289B0162
:1019A000AC016D857E858F8598890E94332620E065
:1019B00030E040E05FE30E94BB286D877E878F8721
:1019C000988B2D813E814F815885C301B2010E94C1
:1019D000BB282DE037EC4AE15FE30E94BB289B0166
:1019E000AC016D857E858F8598890E94322629817C
:1019F0003A814B815C810E94BB289B01AC01698DBF
:101A00007A8D8B8D9C8D0E9433262B013C01CD5706
:101A1000DF4F288139814A815B81C358D0406DA551
:101A20007EA58FA598A90E94BB286DA77EA78FA72A
:101A300098ABC158DF4F288139814A815B81CF57EC
:101A4000D04069A17AA18BA19CA10E94BB289B01D7
:101A5000AC016DA57EA58FA598A90E94332669A328
:101A60007AA38BA39CA3A6019501698D7A8D8B8D9A
:101A70009C8D0E94BB289B01AC0169A17AA18BA11E
:101A80009CA10E94322620E030E040E05FE30E940B
:101A9000BB286B017C012D813E814F815885698572
:101AA0007A858B859C850E94BB282DE037EC4AE126
:101AB0005FE30E94BB289B01AC01C701B6010E94F5
:101AC000322629813A814B815C810E94BB289B018F
:101AD000AC0169897A898B899C890E9433264B01E4
:101AE0005C012D893E894F89588DCA01B9010E9438
:101AF000BB286B017C012DA13EA14FA158A5CA01B5
:101B0000B9010E94BB289B01AC01C701B6010E942C
:101B100033266B017C01A3019201C301B2010E9433
:101B2000BB289B01AC01C701B6010E9433266B01A3
:101B30007C01A5019401C501B4010E94BB289B0151
:101B4000AC01C701B6010E9433260E946E299B0199
:101B5000AC0160E070E080E89FE30E9414276B0115
:101B60007C019B01AC016D897E898F89988D0E94D3
:101B7000BB2860930701709308018093090190933B
:101B80000A01A70196016DA17EA18FA198A50E94CF
:101B9000BB2860930B0170930C0180930D0190930F
:101BA0000E01A7019601C301B2010E94BB286093F8
:101BB0000F01709310018093110190931201A701FE
:101BC0009601C501B4010E94BB2860931301709374
:101BD00014018093150190931601C459DF4F0FB67D
:101BE000F894DEBF0FBECDBFDF91CF911F910F9153
:101BF000FF90EF90DF90CF90BF90AF909F908F902D
:101C00007F906F905F904F9008954F925F926F9288
:101C10007F928F929F92AF92BF92CF92DF92EF927C
:101C2000FF920F931F93CF93DF93CDB7DEB7A497A7
:101C30000FB6F894DEBF0FBECDBF84E00E941E2118
:101C4000892B09F452C087ED91E00E945E1B6091E0
:101C5000D7017091D80187ED91E00E94781720910B
:101C600041023091420240914302509144020E944D
:101C70003226609331027093320280933302909344
:101C800034026091D9017091DA0187ED91E00E94F0
:101C900078172091450230914602409147025091B9
:101CA00048020E94322660932D0270932E02809388
:101CB0002F02909330026091DB017091DC0187ED7F
:101CC00091E00E9478172091490230914A02409198
:101CD0004B0250914C020E9432266093290270936D
:101CE0002A0280932B0290932C0283E00E941E21F3
:101CF000892B09F452C087ED91E00E94481D609144
:101D0000DD017091DE0187ED91E00E948A1720913C
:101D10004D0230914E0240914F02509150020E946C
:101D2000322660933D0270933E0280933F0290936F
:101D300040026091DF017091E00187ED91E00E9427
:101D40008A172091510230915202409153025091D2
:101D500054020E9432266093390270933A028093B3
:101D60003B0290933C026091E1017091E20187EDAA
:101D700091E00E948A1720915502309156024091BD
:101D80005702509158020E94322660933502709398
:101D90003602809337029093380282E00E941E211F
:101DA000892B09F456C087ED91E00E947D1D60915A
:101DB000E3017091E40187ED91E00E949C1760932C
:101DC0002502709326028093270290932802609147
:101DD000E5017091E60187ED91E00E949C17609308
:101DE0002102709322028093230290932402609137
:101DF000E7017091E80187ED91E00E949C176093E4
:101E00001D0270931E0280931F029093200287EDA3
:101E100091E00E94B21D6091E9017091EA0188276A
:101E200077FD8095982F0E94AF2720E030E040E0BA
:101E30005EE30E94BB2820E030E048EA51E40E94C3
:101E400033266093190270931A0280931B029093B9
:101E50001C020E9400206B017C0160935902709368
:101E60005A0280935B0290935C0280915D02909194
:101E70005E02A0915F02B0916002A7019601281B4B
:101E8000390B4A0B5B0BCA01B9010E94AD2720E058
:101E900034E244E759E40E9414276093610270938E
:101EA00062028093630290936402C0925D02D092BA
:101EB0005E02E0925F02F09260022BED3FE049E4A7
:101EC00050E460913102709132028091330290911E
:101ED00034020E94BB2820E030E044E353E40E9437
:101EE00014275B016C018091350290913602A0911C
:101EF0003702B091380289879A87AB87BC874090B8
:101F0000390250903A0260903B0270903C0220915E
:101F10003D0230913E0240913F02509140022D8798
:101F20003E874F87588B809120028F9380911F02AC
:101F30008F9380911E028F9380911D028F938091C9
:101F400024028F93809123028F93809122028F939A
:101F5000809121028F93809128028F938091270294
:101F60008F93809126028F93809125028F932BED82
:101F70003FE049E450E46091290270912A02809187
:101F80002B0290912C020E94BB2820E030E044E319
:101F900053E40E9414279F938F937F936F932BEDAD
:101FA0003FE049E450E460912D0270912E0280914F
:101FB0002F02909130020E94BB2820E030E044E3E1
:101FC00053E40E9414279F938F937F936F93E98428
:101FD000FA840B851C85A30192016D857E858F8512
:101FE00098890E94C6020E94F41F00917902109104
:101FF0007A0220917B0230917C02601B710B820B74
:10200000930B60937502709376028093770290939E
:1020100078020FB6F894DEBF0FBECDBF653F7140AA
:102020008105910508F4A9C1209121023091220275
:102030004091230250912402609125027091260262
:1020400080912702909128020E948701E09035023A
:10205000F090360200913702109138022091390237
:1020600030913A0240913B0250913C0260913D0216
:1020700070913E0280913F02909140020E941002B6
:102080008090070190900801A0900901B0900A018A
:10209000A5019401C501B4010E94BB286D877E870C
:1020A0008F87988B80910B0190910C01A0910D016D
:1020B000B0910E0189879A87AB87BC879C01AD01DF
:1020C000BC01CD010E94BB28698F7A8F8B8F9C8FBA
:1020D00040900F015090100160901101709012011A
:1020E000A3019201C301B2010E94BB286D8F7E8FB4
:1020F0008F8F98A3C0901301D0901401E090150128
:10210000F0901601A7019601C701B6010E94BB28F5
:1021100069A37AA38BA39CA3298D3A8D4B8D5C8DEB
:102120006D857E858F8598890E9433262D8D3E8D05
:102130004F8D58A10E94322629A13AA14BA15CA142
:102140000E9432266D8B7E8B8F8B988FA30192011C
:1021500069857A858B859C850E94BB28698B7A8BE3
:102160008B8B9C8BA7019601C501B4010E94BB28F3
:102170009B01AC0169897A898B899C890E943326ED
:102180009B01AC010E9433262D893E894F89588DD1
:102190000E94BD266D8B7E8B8F8B988FA701960139
:1021A00069857A858B859C850E94BB28698B7A8B93
:1021B0008B8B9C8BA3019201C501B4010E94BB28AB
:1021C0009B01AC0169897A898B899C890E9432269E
:1021D0009B01AC010E9433260E949726698B7A8B63
:1021E0008B8B9C8B298D3A8D4B8D5C8D6D857E857F
:1021F0008F8598890E9432262D8D3E8D4F8D58A156
:102200000E94322629A13AA14BA15CA10E9433264B
:102210006D877E878F87988B29853A854B855C856E
:10222000C501B4010E94BB284B015C01A7019601C6
:10223000C301B2010E94BB289B01AC01C501B401DE
:102240000E9433269B01AC010E9433262D853E85DA
:102250004F8558890E94BD266B017C0169897A8966
:102260008B899C89905820EE3EE245E652E40E941C
:10227000BB286093710270937202809373029093F3
:10228000740220EE3EE245E652E46D897E898F8934
:10229000988D0E94BB282DEC3CEC4CE551E40E944B
:1022A000322660936D0270936E0280936F0290935A
:1022B000700220EE3EE245E652E4C701B6010E94FC
:1022C000BB286093690270936A0280936B029093BB
:1022D0006C0289EB91E00E9469120E94F41F6B016D
:1022E0007C0189EB91E00E944412C61AD70AE80AE1
:1022F000F90A95E6C916D104E104F104A0F189EBCD
:1023000091E00E94411281111EC060917102709192
:10231000720280917302909174020E9481276983F6
:102320006091690270916A0280916B0290916C02D7
:102330000E9481276A8342E0BE016F5F7F4F89EB75
:1023400091E00E944D1480910601843610F01092A5
:1023500006010E94F41F6093960170939701809389
:102360009801909399010E94F41F609379027093F1
:102370007A0280937B0290937C02A4960FB6F89425
:10238000DEBF0FBECDBFDF91CF911F910F91FF90A8
:10239000EF90DF90CF90BF90AF909F908F907F9005
:1023A0006F905F904F9008952DE14BE661E070E0F3
:1023B00087ED91E00E94721789EB91E00E94EF1186
:1023C00020E04BE06AE08AE991E00C947A1F8AE908
:1023D00091E00C94211F67E871E00C94DA250895D0
:1023E0000F931F93CF93DF93EC018B0126E040E620
:1023F00059E060E070E08BE893E00E942A22198F98
:10240000088F1C8E1D8EDF91CF911F910F91089523
:10241000CF92DF92EF92FF920F931F93CF93DF93B0
:1024200000D000D0CDB7DEB76C018BE090E02C83FC
:102430004B8369837A830E9457237C010E94EB11AE
:1024400069817A81C7010E94F0252C81F7012783D9
:1024500011870087F601848D8F5F848F4B81442321
:1024600019F0858D8F5F858F0F900F900F900F90D3
:10247000DF91CF911F910F91FF90EF90DF90CF9060
:102480000895FC01828D0895FC0160817181828133
:10249000938108956032710584F4603171057CF494
:1024A0006830710574F4643071056CF46230710544
:1024B00064F46130710559F0089585E0089584E071
:1024C000089583E0089582E0089581E0089580E012
:1024D0000895EF92FF920F931F93CF93DF93EC0138
:1024E0008BE893E00E944721892B29F18BE893E048
:1024F0000E9460217C0199278230910519F0039791
:1025000041F019C00E94F41F688379838A839B83FA
:1025100012C08BE893E00E9460218C018BE893E06D
:102520000E946021E094E026F12CE816F90619F4E7
:1025300011271B8F0A8FDF91CF911F910F91FF9071
:10254000EF900895DF92EF92FF920F931F93CF9336
:10255000DF938A01E22ED62ED0948BE893E00E947E
:10256000C521E801F12CCE01801B910B8E159F0532
:102570003CF46991D6268BE893E00E94C521F3CF05
:102580006D2D8BE893E0DF91CF911F910F91FF901C
:10259000EF90DF900C94C5212F923F924F925F9263
:1025A0006F927F928F929F92AF92BF92CF92DF9263
:1025B000EF92FF920F931F93CF93DF93CDB7DEB7C8
:1025C00069970FB6F894DEBF0FBECDBF8C012DB753
:1025D0003EB73E8B2D8B26E040E659E060E070E090
:1025E0008BE893E00E942A22F801808D8A8721E0FF
:1025F000AE01465F5F4F60E0C8010E94A212F80181
:10260000848D81508A87858D81508B8722E0AE0131
:10261000465F5F4F61E0C8010E94A2121E82F1EE88
:10262000FF831886198624E0AE014A5F5F4F62E09F
:10263000C8010E94A212F801848D90E09C012150F3
:1026400031093A8B298B1C01220C331C200E311EC0
:10265000A12CB12C388F2F8B8F89988D8A0D9B1DC3
:10266000019609F4B9C08DB79EB79C8B8B8BF50191
:10267000EE0FFF1FE20DF31DC280D380F6018480B0
:102680009580B401C8010E944A128E87282F30E03D
:10269000388B2F87C9010296EDB7FEB7E81BF90BFF
:1026A0000FB6F894FEBF0FBEEDBF2DB73EB72F5F3C
:1026B0003F4F79013E85632F70E080E090E00E94FB
:1026C000AD279B01AC0160E070E080E090E40E94E7
:1026D0001E292B013C010E947C27F701CF018E1996
:1026E0009F096817790714F41192F8CF20E030E0C1
:1026F000A401B7016F5F7F4FC6010E940726F70153
:10270000108220E030E040E85FE3C301B2010E94A4
:1027100033260E948127962E3701C3018E199F0907
:102720002F8538898217930784F4F30161913F0163
:102730004AE050E08BE893E00E94662460E471E098
:102740008BE893E00E94A423E8CF62E471E08BE879
:1027500093E00E94972340E150E06E858BE893E080
:102760000E946624692D70E0685B7E4F8BE893E0E1
:102770000E94A42339893A0D632F60688F85988958
:1027800023E0880F991F2A95E1F7682B292DA701CF
:10279000C801398F0E94A21280E88983F6018681E0
:1027A0008A8387818B8380858C8382858D83398D15
:1027B000632F606925E0AE014F5F5F4FC8010E9443
:1027C000A2122B893C890FB6F8943EBF0FBE2DBFD5
:1027D00031E0A31AB10840CFE0918B03F0918C0354
:1027E0000190F081E02D64E08BE893E009950E9470
:1027F000F41F6B017C018BE893E00E944721892B39
:1028000059F40E94F41F6C197D098E099F09603DDF
:1028100077408105910578F38BE893E00E9447218A
:10282000892B09F4D8CE8BE893E00E946021843094
:1028300009F0D1CE8BE893E00E94862226E040E0AA
:1028400051EE60E070E08BE893E00E942A2260E5A0
:1028500070E080E090E00E9423202D893E890FB631
:10286000F8943EBF0FBE2DBF69960FB6F894DEBF39
:102870000FBECDBFDF91CF911F910F91FF90EF90D1
:10288000DF90CF90BF90AF909F908F907F906F9090
:102890005F904F903F902F900895242FFC01328D30
:1028A000386CAB01632F0C94A2128091AD0290E0C2
:1028B0002091AE02821B910908952091AE02809171
:1028C000AD02281750F4E22FF0E0E155FD4F808172
:1028D00090E02F5F2093AE0208958FEF9FEF089551
:1028E000E091AE028091AD02E81730F4F0E0E155DE
:1028F000FD4F808190E008958FEF9FEF0895089538
:10290000CF92DF92EF92FF920F931F93CF93DF93BB
:102910007C01CB018A0120918902222389F0EB01FD
:102920006B01C40ED51ECC15DD0569F06991D70188
:10293000ED91FC910190F081E02DC7010995F3CF55
:10294000642F0E94DF15C801DF91CF911F910F9175
:10295000FF90EF90DF90CF900895CF93DF931F9279
:10296000CDB7DEB76983209189022223D1F020916F
:102970008A02203240F021E030E0FC0133832283E0
:1029800080E090E015C080918B02E82FF0E0E457E2
:10299000FD4F998190838F5F80938B0280938A0291
:1029A00005C061E0CE0101960E94DF1581E090E054
:1029B0000F90DF91CF910895FC011382128248EEAF
:1029C00053E060E070E0448355836683778389E554
:1029D00091E09183808308951092AE021092AD022F
:1029E00010928B0210928A020C942A15862F413283
:1029F00008F040E26FEA72E00E9448151092AE02C1
:102A00008093AD02089521E00C94F61481E0809348
:102A100089026093AC0210928B0210928A02089590
:102A20000F93062F21E040918A026CE872E08091BA
:102A3000AC020E948C1510928B0210928A021092A6
:102A400089020F91089561E00C9410158DE792E0D2
:102A50000C94DC1410923C0381E080933A031092B2
:102A6000390361E082E10E94E82061E083E10E9495
:102A7000E820E9EBF0E080818E7F808380818D7F8C
:102A8000808380E28093B80085E48093BC00089541
:102A9000413208F03FC090913C039111FCCF91E08E
:102AA00090933C0320933A032FEF2093CF02109290
:102AB0001403240F2093130390933B0390913B0343
:102AC000880F892B80933B0380913903813041F437
:102AD0001092390380913B038093BB0085EC01C0C9
:102AE00085EE8093BC0080913C038130E1F38091BE
:102AF0001403841710F44091140325E133E0FB0123
:102B0000D9018A2F821B841718F48D918193F9CFF4
:102B1000842F089580E008950F93413208F046C055
:102B200090913C039111FCCF92E090933C03009371
:102B30003A039FEF9093CF02109214034093130334
:102B4000FB0165E173E0DB019A2F961B941718F4E3
:102B500091919D93F9CF10923B0390913B03880F85
:102B6000892B80933B0380913903813041F410928B
:102B7000390380913B038093BB0085EC01C085EE57
:102B80008093BC00222321F080913C038230E1F34A
:102B90008091CF028F3F61F08091CF02803251F05F
:102BA0008091CF02803341F483E007C081E005C00B
:102BB00080E003C082E001C084E00F91089561329B
:102BC00098F420913C03243089F46093F102FC01D5
:102BD00083EF92E0DC012A2F281B261718F421919D
:102BE0002D93F9CF80E0089581E0089582E0089563
:102BF00085ED8093BC008091BC0084FDFCCF1092D9
:102C00003C03089585EC8093BC0010923C0308952A
:102C10001F920F920FB60F9211242F933F934F9351
:102C20005F936F937F938F939F93AF93BF93EF9334
:102C3000FF938091B900887F803609F49CC068F5C5
:102C4000883209F45BC090F4803109F454C038F440
:102C5000882309F4F5C0883009F44DC0F5C08831E7
:102C600009F44CC0803209F45DC0EEC0803409F430
:102C700068C048F4803309F455C0883309F0E4C0D3
:102C80008093CF02A8C0803509F44FC0883509F47D
:102C90005DC0883409F0D8C0D5C0883909F4C6C0F1
:102CA000A8F4883709F467C038F4883609F463C09B
:102CB000803709F460C0C8C0883809F4B7C08039CB
:102CC00009F45FC0803809F0BFC05BC0803B09F4E5
:102CD00085C038F4803A09F466C0883A09F47EC0A9
:102CE000B3C0803C09F4A6C0883C09F4A3C0883B6B
:102CF00009F489C0A9C080913B0310C090911403CE
:102D000080911303981770F5E091140381E08E0F02
:102D100080931403F0E0EB5EFC4F80818093BB0056
:102D200085EC85C08093CF028DC0E091140381E0D3
:102D30008E0F809314038091BB00F0E0EB5EFC4F9C
:102D4000808390911403809113036DC0E09114036C
:102D500081E08E0F809314038091BB00F0E0EB5E66
:102D6000FC4F808380913A0381116CC081E0809395
:102D7000390384EA60C083E080933C031092D00260
:102D8000CFCF8091D002803208F050C0E091D002C5
:102D900081E08E0F8093D0028091BB00F0E0EF5273
:102DA000FD4F8083BDCF8091D002803230F4E0911E
:102DB000D002F0E0EF52FD4F10820E94F8156091B2
:102DC000D00270E0E0913503F091360381ED92E09E
:102DD00009951092D0020E94021636C084E08093BA
:102DE0003C031092F2021092F102E0913703F0914D
:102DF000380309958091F102811105C081E080932B
:102E0000F1021092F302E091F20281E08E0F8093C2
:102E1000F202F0E0ED50FD4F80818093BB00909175
:102E2000F2028091F102981708F47ACF85E8809336
:102E3000BC000AC085EC8093BC0010923C0304C027
:102E40001092CF020E94F815FF91EF91BF91AF91C0
:102E50009F918F917F916F915F914F913F912F91B2
:102E60000F900FBE0F901F901895CF93CFB7F89487
:102E700080913D03811127C0E6E8F1E08491E2E70B
:102E8000F1E09491E82FF0E0EE0FFF1FEC55FE4FBC
:102E9000A591B4918C91892321F461E08AE00E948C
:102EA000E82061E08AE00E94AF208CB580618CBD93
:102EB0008CB580648CBD61E08DE00E94AF2061E044
:102EC0008BE00E94AF2080913D038F5F80933D0394
:102ED000CFBFCF9108958EBD00000DB407FEFDCF8A
:102EE0008EB50895FC0177A766A724A745A7089586
:102EF000CF93DF93EC01882777FD8095982F0E9470
:102F0000AF272EA93FA948AD59AD0E94BB28DF913C
:102F1000CF910895CF93DF93EC01882777FD8095BB
:102F2000982F0E94AF272AAD3BAD4CAD5DAD0E94FE
:102F3000BB28DF91CF910895CF93DF93EC01EE96FC
:102F4000882777FD8095982F0E94AF2728813981A7
:102F50004A815B810E94BB28DF91CF910895FC01DB
:102F600080A991A98130910551F08230910561F0DD
:102F7000892B91F440E050E065EF7BE309C040E02D
:102F800050E06AE77CE304C040E050E06AE77DE39C
:102F900046AB57AB60AF71AF0895CF93DF93EC01B1
:102FA0006AA97BA964307105A9F080E090E00E94D5
:102FB000AD2720E030E040E85FE30E9433269B012C
:102FC000AC010E94332620E030E040E058E30E944C
:102FD000BB2804C060E070E080E09AE36AAF7BAF9A
:102FE0008CAF9DAFDF91CF910895CF93DF93EC012C
:102FF0008CA99DA9009791F0BC01660F771F660F01
:10300000771F882777FD8095982F0E94AF2720E0B3
:1030100030E040E058E30E94BB2804C060E070E06C
:1030200080E898E3EE96688379838A839B83DF91B7
:10303000CF910895CF93DF93EC0161E08DA50E94BD
:10304000AF2061E08DA50E94E82061E08CA50E9480
:10305000AF2061E08CA50E94E8200E9435178CB556
:103060008C7F8CBD8DB58E7F8DBD8CB58F7D8CBDDD
:103070008CB5837F84608CBDDF91CF9108951F93C1
:10308000CF93DF9300D0CDB7DEB7162F60E0812F4E
:103090002A8349830E94E8204981842F8F730E94EC
:1030A0006B172A81822F0E946B1761E0812F0F908E
:1030B0000F90DF91CF911F910C94E820AF92BF92B7
:1030C000DF92EF92FF920F931F93CF93DF931F92A4
:1030D000CDB7DEB7D62E790160E08D2D49830E94F1
:1030E000E8204981842F023010F0806C02C08F7379
:1030F00080680E946B17570110E095012E193F0957
:10310000201731073CF480E00E946B17F501819392
:103110005F01F3CF61E08D2D0F90DF91CF911F9173
:103120000F91FF90EF90DF90BF90AF900C94E8204C
:103130000F93CF93DF931F92CDB7DEB701E09E01CF
:103140002F5F3F4F0E945E1889810F90DF91CF91D2
:103150000F910895CF93DF9300D0CDB7DEB78DE701
:1031600092E02A8349830E9406154981642F8DE7E6
:1031700092E00E94AD142A81622F8DE792E00E94B6
:10318000AD148DE792E00F900F90DF91CF910C94EA
:103190002315242FDC019E96ED91FC919F97E13041
:1031A000F10529F4462F9D966C910C94AA18EF2BEB
:1031B00029F4462FFC0165A50C943F180895CF9281
:1031C000DF92EF92FF920F931F93CF93DF9300D084
:1031D0001F92CDB7DEB76C01F42E462F60E32B8330
:1031E0003A8359830E94C9185981452F62E3C60169
:1031F0000E94C9184F2D63E3C6010E94C9183A8185
:10320000432F64E3C6010E94C9182B81422F65E356
:10321000C6010E94C918412F66E3C6010E94C91861
:10322000402F67E3C6010E94C918EE2019F04E2D09
:10323000406801C040E068E3C6010F900F900F9016
:10324000DF91CF911F910F91FF90EF90DF90CF9082
:103250000C94C918EF920F931F93CF93DF93EC0157
:103260004FE060E20E94C91840E061E2CE010E9496
:10327000C91848E862E2CE010E94C91840E063E242
:10328000CE010E94C91840E064E2CE010E94C91834
:10329000E12C00E010E020E030E040E050E06AE2A5
:1032A000CE010E94DF18DF91CF911F910F91EF9017
:1032B0000895242FDC019E96ED91FC919F97E130BB
:1032C000F10529F4462F9C966C910C94AA18EF2BCB
:1032D00029F4462FFC0164A50C943F180895CF9360
:1032E000DF93EC0140E06FE10E94591947E560E28D
:1032F000CE010E94591940E061E2CE010E945919A5
:1033000044E062E2CE01DF91CF910C945919CF9342
:10331000DF93EC0144E964E20E94591940E065E260
:10332000CE010E94591940E066E2CE010E9459196F
:1033300044E063E2CE010E94591949E062E1CE0106
:10334000DF91CF910C9459191F93CF93DF931F9264
:10335000CDB7DEB7162F8DE792E049830E940615A0
:103360004981642F8DE792E00E94AD1460E08DE703
:1033700092E00E94101541E0612F8DE792E00E94DB
:1033800003158DE792E00E945D140F90DF91CF91BD
:103390001F910895462FFC0126A537A52130310540
:1033A00019F465A50C94A419232B21F4FC0165A53F
:1033B0000C94981808950F931F93CF93DF93EC010B
:1033C0008B0163E20E94CA19482F4F7C980194E058
:1033D000220F331F9A95E1F7422B63E2CE010E9440
:1033E000C91819AB08ABCE01DF91CF911F910F9196
:1033F0000C94AF170F931F93CF93DF93EC018B01C6
:1034000060E20E94CA19482F4F7024E0000F111F7C
:103410002A95E1F7402B60E2CE01DF91CF911F9119
:103420000F910C94C918462FFC0126A537A5213011
:10343000310519F464A50C94A419232B21F4FC0183
:1034400064A50C94981808950F931F93CF93DF935E
:10345000EC018B0161E20E94131A482F477E98010C
:1034600053E0220F331F5A95E1F7422B61E2CE0160
:103470000E9459191BAB0AABCE01DF91CF911F916E
:103480000F910C94CD170F931F93CF93DF93EC0103
:103490008B0165E20E94131A482F4F79980165E06D
:1034A000220F331F6A95E1F7422B65E2CE010E949D
:1034B00059191DAB0CABCE01DF91CF911F910F912C
:1034C0000C94F5170F931F93CF93DF93EC018B01AF
:1034D00060E20E94131A482F4F7074E0000F111F12
:1034E0007A95E1F7402B60E2CE01DF91CF911F91F9
:1034F0000F910C9459191F93CF93DF93EC01162F62
:1035000061E20E94131A482F10FB47F961E2CE01D5
:10351000DF91CF911F910C9459190F931F93CF9363
:10352000DF93EC018B0164E20E94131A482F437E63
:10353000000F111F000F111F402B64E2CE01DF911D
:10354000CF911F910F910C945919AF92BF92CF92C6
:10355000DF92EF92FF920F931F93CF93DF93EC01D3
:1035600079AB68AB5BAB4AAB3DAB2CAB0E94AF1702
:10357000CE010E94F517CE010E94CD178EA59FA502
:103580008130910529F48DE792E00E94EC1405C08A
:10359000892B19F4CE010E941A186FE0CE010E9407
:1035A000CA19A82E6FE0CE010E94131AB82ECE01C0
:1035B0000E942A19B801CE010E94FA1968A979A9B6
:1035C000CE010E94DB19CE010E946F19B701CE0116
:1035D0000E94621A6AA97BA9CE010E94241ACE0118
:1035E0000E948719B601CE010E948D1A6CA97DA98F
:1035F000CE010E94431A8A2D90E09B29DF91CF9142
:103600001F910F91FF90EF90DF90CF90BF90AF9000
:103610000895EF92FF920F93CF93DF93C62FD42F8D
:1036200079018DE792E00E940615E0917D02F0910C
:103630007E026D2F60680190F081E02D8DE792E0B1
:10364000099560E08DE792E00E941015402F6C2FE5
:103650008DE792E00E940315C0E08DE792E00E94A2
:103660005514892B69F001E00C0FC7018C0F911DD7
:10367000EC018DE792E00E945D148883C02FEDCFAE
:10368000DF91CF910F91FF90EF9008950F93022F4C
:10369000FC01A6A5B7A5A130B10531F49A01462FCA
:1036A00065A50E94091B08C0AB2B31F49A01462F77
:1036B000FC0165A50E945E180F9108950F931F935A
:1036C000CF93DF9300D000D000D0CDB7DEB78C0110
:1036D00026E0AE014F5F5F4F68E20E94461B8A8181
:1036E00090E0982F88272981822BF801918380838D
:1036F0008C8190E0982F88272B81822B9383828363
:103700008E8190E0982F88272D81822B958384834A
:1037100026960FB6F894DEBF0FBECDBFDF91CF91D6
:103720001F910F9108950F93022FFC01A6A5B7A535
:10373000A130B10531F49A01462F64A50E94091BFE
:1037400008C0AB2B31F49A01462FFC0164A50E94FE
:103750005E180F9108952F923F924F925F926F9251
:103760007F928F929F92AF92BF92CF92DF92EF9211
:10377000FF920F931F93CF93DF93CDB7DEB72897B8
:103780000FB6F894DEBF0FBECDBF8C012B0158875A
:103790004F83CE0101961C0186E0F10111928A95BA
:1037A000E9F764E2C8010E94CA19482F406464E244
:1037B000C8010E94C91864E170E080E090E00E94B6
:1037C00023204FE36EE2C8010E94C91868EE73E03F
:1037D00080E090E00E9423206FE2C8010E94CA1995
:1037E0008F71E82EF12CC12CD12CA12CB12C812C65
:1037F000912C612C712C6E147F0414F526E0A1012C
:1038000068E2C8010E94461B8A8190E0982F8827B1
:103810002981822B880E991E8C8190E0982F882711
:103820002B81822BA80EB91E8E8190E0982F8827BD
:103830002D81822BC80ED91EFFEF6F1A7F0ADBCFB6
:10384000C401B7010E94A72A882777FD8095982F89
:103850000E94AF27F80126A937A940AD51AD0E94BB
:10386000BB28F2016083718382839383C501B70112
:103870000E94A72A882777FD8095982F0E94AF275E
:10388000F80126A937A940AD51AD0E94BB28F2012D
:103890006483758386839783C601B7010E94A72A34
:1038A000882777FD8095982F0E94AF27F80126A9D9
:1038B00037A940AD51AD0E94BB28F20160877187E6
:1038C0008287938764E2C8010E94CA19482F4F7B00
:1038D00064E2C8010E94C91864E170E080E090E0F1
:1038E0000E94232040E06EE2C8010E94C9186FE1E7
:1038F000C8010E94131A482F40646FE1C8010E945A
:10390000591964E170E080E090E00E9423204FE3C9
:103910006EE2C8010E94591968EE73E080E090E001
:103920000E9423206FE2C8010E94131A8F71E82EB3
:10393000F12CC12CD12CA12CB12C812C912C412CFF
:10394000512C4E145F048CF526E0A10168E2C801F9
:103950000E94931B8A8190E0982F88272981822BCF
:10396000880E991E8C8190E0982F88272B81822BBE
:10397000A80EB91E6E80712C762C66248D81682A63
:10398000F80122AD33AD44AD55AD60E070E080E8A4
:103990009FE30E9414270E947C27661A770AC60CB0
:1039A000D71CFFEF4F1A5F0ACCCFC401B7010E94AA
:1039B000A72A882777FD8095982F0E94AF27F801C6
:1039C00022AD33AD44AD55AD0E94BB28EF81F885E3
:1039D0006083718382839383C501B7010E94A72A04
:1039E000882777FD8095982F0E94AF27F80122AD98
:1039F00033AD44AD55AD0E94BB28EF81F88564839B
:103A0000758386839783C601B7010E94A72A8827FA
:103A100077FD8095982F0E94AF27F80122AD33AD36
:103A200044AD55AD0E94BB28EF81F8856087718752
:103A3000828793876FE1C8010E94131A482F4F7B3A
:103A40006FE1C8010E94591964E170E080E090E0E4
:103A50000E94232040E06EE2C8010E945919289676
:103A60000FB6F894DEBF0FBECDBFDF91CF911F918F
:103A70000F91FF90EF90DF90CF90BF90AF909F900D
:103A80008F907F906F905F904F903F902F90089510
:103A90000F931F93CF93DF9300D000D000D0CDB70A
:103AA000DEB78C0126E0AE014F5F5F4F68E20E94F7
:103AB000931B8A8190E0982F88272981822BF80117
:103AC000978386838C8190E0982F88272B81822B87
:103AD000918780878E8190E0982F88272D81822B77
:103AE0009387828726960FB6F894DEBF0FBECDBFB0
:103AF000DF91CF911F910F9108950F931F93CF9353
:103B0000DF9300D000D000D0CDB7DEB78C0126E027
:103B1000AE014F5F5F4F68E00E94931B8A8190E087
:103B2000982F88272981822BF801958784878C819B
:103B300090E0982F88272B81822B978786878E810C
:103B400090E0982F88272D81822B918B808B269651
:103B50000FB6F894DEBF0FBECDBFDF91CF911F919E
:103B60000F9108950F931F93CF93DF9300D0CDB79C
:103B7000DEB78C0122E0AE014F5F5F4F65E00E942F
:103B8000931B298180E1289F900111244A8150E0F4
:103B9000542F44275295507F242B352B74E03595B4
:103BA00027957A95E1F7F801338B228B0F900F90D0
:103BB000DF91CF911F910F91089520918003309153
:103BC000810328173907B9F490913E0380913F0390
:103BD000981789F0E0913E03F0E0E05CFC4F8081B3
:103BE00020913E0330E02F5F3F4F2F733327209308
:103BF0003E0390E008958FEF9FEF08951F93CF93BA
:103C0000DF93DC015C968D919C915D97009749F460
:103C100081E090E013969C938E93129780E090E061
:103C20003BC05196ED91FC91529750962C91509734
:103C3000322F30951FB75E964C915E9741FB7727E8
:103C400070F941FD6095F8944081772311F0422B83
:103C500001C043234083EC012197F1F748E05081F4
:103C600060FF02C0522B01C053235083EC01219707
:103C7000F1F76695415099F78081772311F08323FE
:103C800001C0822B80831FBF5C968D919C915D97B4
:103C90000197F1F781E090E0DF91CF911F910895B6
:103CA00020918003309181032817390781F4909186
:103CB0003E0380913F03981751F0E0913E03F0E0FE
:103CC000E05CFC4F8081992787FD909508958FEFE8
:103CD0009FEF0895209180033091810328173907C1
:103CE00071F480913F0320913E0390E0805C9F4FF0
:103CF000821B910960E470E00E94A72A089580E089
:103D000090E00895209180033091810328173907AE
:103D100039F48FB7F89410923F0310923E038FBF8F
:103D20000895E0918003F0918103E817F90769F4A1
:103D3000A389B4899C918589809589238C9310925D
:103D400081031092800381E0089580E008951F921E
:103D50000F920FB60F9211242F933F934F935F93BF
:103D60006F937F938F939F93AF93BF93EF93FF9343
:103D7000E0918003F0918103309709F451C0868D62
:103D8000A685B785958581FF04C08C91892329F488
:103D900047C08C91892309F043C0A389B4899C91C1
:103DA0008589809589238C93868997890197F1F776
:103DB000208D318DA685B785758558E040E0C90115
:103DC0000197F1F7842F90E095958795482F6C9196
:103DD000672309F04068515091F7868D81FD409529
:103DE00080913F0390E001968F73992720913E03C5
:103DF000281749F0A0913F03B0E0A05CBC4F4C9362
:103E000080933F0303C0868D8160868F828D938D62
:103E10000197F1F7A389B4898C919589892B8C93AB
:103E2000FF91EF91BF91AF919F918F917F916F9192
:103E30005F914F913F912F910F900FBE0F901F9068
:103E4000189529E631E0FC01318320830C94911E02
:103E50001F93CF93DF93EC01162F6E8D66956170E3
:103E600081E06827812F0E94E82061E0812F0E9475
:103E7000AF20812F90E0FC01E859FE4FE491E88BE0
:103E8000FC01E458FE4FE491F0E0EE0FFF1FE65610
:103E9000FE4F859194919A8B898BDF91CF911F91E1
:103EA00008951F93CF93DF93EC01162F60E0812FCD
:103EB0000E94AF208E8D81FD04C061E0812F0E94A1
:103EC000E8201C87812F90E0FC01E859FE4FE49127
:103ED000ED87FC01E458FE4FE491F0E0EE0FFF1F88
:103EE000E057FE4F859194919F878E87DF91CF9108
:103EF0001F910895FF920F931F93CF93DF93EC01CF
:103F0000F62E522F1B821A8208EE13E020E030E0DA
:103F10000C831D832E833F8389E691E099838883F8
:103F20001F8A1E8A198E188E1B8E1A8E1D8E1C8E4D
:103F30008E8D8E7F50FB81F98E8F642FCE010E9473
:103F4000281F6F2DCE01DF91CF911F910F91FF9010
:103F50000C94511F1F920F920FB60F9211242F93A2
:103F60003F938F939F93AF93BF93809183039091DF
:103F70008403A0918503B09186033091820326E0EB
:103F8000230F2D3720F40296A11DB11D05C029E88D
:103F9000230F0396A11DB11D2093820380938303F9
:103FA00090938403A0938503B09386038091870345
:103FB00090918803A0918903B0918A030196A11D75
:103FC000B11D8093870390938803A0938903B093D6
:103FD0008A03BF91AF919F918F913F912F910F9045
:103FE0000FBE0F901F9018952FB7F8946091830320
:103FF0007091840380918503909186032FBF08956B
:104000003FB7F8948091870390918803A09189032A
:10401000B0918A0326B5A89B05C02F3F19F00196E1
:10402000A11DB11D3FBF6627782F892F9A2F620FE0
:10403000711D811D911D43E0660F771F881F991F19
:104040004A95D1F70895CF92DF92EF92FF92CF93E6
:10405000DF936B017C010E940020EB01C114D104AD
:10406000E104F10489F00E9431260E9400206C1BBB
:104070007D0B683E734090F381E0C81AD108E108D7
:10408000F108C851DC4FEACFDF91CF91FF90EF905C
:10409000DF90CF900895789484B5826084BD84B514
:1040A000816084BD85B5826085BD85B5816085BD33
:1040B000EEE6F0E0808181608083E1E8F0E010824C
:1040C000808182608083808181608083E0E8F0E08D
:1040D000808181608083E1EBF0E080818460808377
:1040E000E0EBF0E0808181608083EAE7F0E08081AE
:1040F0008460808380818260808380818E7F8083E2
:104100008081806880831092C1000895833081F09F
:1041100028F4813099F08230A1F008958730A9F019
:104120008830B9F08430D1F4809180008F7D03C055
:10413000809180008F7780938000089584B58F7779
:1041400002C084B58F7D84BD08958091B0008F77C3
:1041500003C08091B0008F7D8093B0000895CF930D
:10416000DF9390E0FC01E859FE4F2491FC01E458F4
:10417000FE4F8491882349F190E0880F991FFC013C
:10418000EC55FE4FA591B49186569E4FFC01C5910A
:10419000D4919FB7611108C0F8948C912095822327
:1041A0008C93888182230AC0623051F4F8948C91F8
:1041B000322F309583238C938881822B888304C08F
:1041C000F8948C91822B8C939FBFDF91CF910895AF
:1041D0000F931F93CF93DF931F92CDB7DEB7282F96
:1041E00030E0F901EC5AFE4F8491F901E859FE4F95
:1041F0001491F901E458FE4F04910023C9F088237B
:1042000021F069830E9486206981E02FF0E0EE0FA3
:10421000FF1FE656FE4FA591B4919FB7F8948C917D
:10422000611103C01095812301C0812B8C939FBF26
:104230000F90DF91CF911F910F910895CF93DF934E
:10424000282F30E0F901EC5AFE4F8491F901E8592A
:10425000FE4FD491F901E458FE4FC491CC2391F064
:1042600081110E948620EC2FF0E0EE0FFF1FE05737
:10427000FE4FA591B4912C912D2381E090E021F483
:1042800080E002C080E090E0DF91CF910895FC01D2
:10429000818D228D90E0805C9F4F821B91098F73EE
:1042A00099270895FC01918D828D981731F0828DA8
:1042B000E80FF11D858D90E008958FEF9FEF089531
:1042C000FC01918D828D981761F0828DDF01A80F1E
:1042D000B11D5D968C91928D9F5F9F73928F90E040
:1042E00008958FEF9FEF08958AEF92E2892B49F0AE
:1042F00080E090E0892B29F00E94FA2281110C9431
:1043000000000895FC01848DDF01A80FB11DA35AA0
:10431000BF4F2C91848D90E001968F739927848FE5
:10432000A689B7892C93A089B1898C9180648C93DC
:10433000938D848D981306C00288F389E02D8081C7
:104340008F7D80830895CF93DF93EC01888D882340
:10435000C9F0EA89FB89808185FD05C0A889B989F2
:104360008C9186FD0FC00FB607FCF5CF808185FFCD
:10437000F2CFA889B9898C9185FFEDCFCE010E943B
:104380008221E7CFDF91CF910895CF92DF92FF9204
:104390000F931F93CF93DF931F92CDB7DEB76C01BE
:1043A00081E0D60158968C9358975B969C915B97C9
:1043B0005C968C915C97981307C05096ED91FC9198
:1043C0005197808185FD2EC0F601038D10E00F5FAF
:1043D0001F4F0F731127F02EF601848DF81211C0B4
:1043E0000FB607FCF9CFD6015096ED91FC9151978D
:1043F000808185FFF1CFC60169830E948221698196
:10440000EBCF838DE80FF11DE35AFF4F6083D60198
:104410005B960C935B975296ED91FC91539780813C
:1044200080620CC0D6015696ED91FC91579760833F
:104430005096ED91FC91519780818064808381E05A
:1044400090E00F90DF91CF911F910F91FF90DF903F
:10445000CF900895BF92CF92DF92EF92FF92CF93C9
:10446000DF93EC016A017B01B22E60E874E88EE113
:1044700090E0A70196010E94BB2A21503109410911
:1044800051095695479537952795E889F98982E02E
:104490008083211580E1380798F0E889F989108236
:1044A00060E472E48FE090E0A70196010E94BB2ACD
:1044B000215031094109510956954795379527955E
:1044C000EC85FD853083EE85FF852083188EEC8991
:1044D000FD89B082EA89FB89808180618083EA89D5
:1044E000FB89808188608083EA89FB89808180687C
:1044F0008083EA89FB8980818F7D8083DF91CF91E2
:10450000FF90EF90DF90CF90BF900895FC01938DC6
:10451000848D9813FCCFA289B3898C918F7E8C9364
:10452000A289B3898C91877F8C93A289B3898C915E
:104530008F778C93A289B3898C918F7D8C93828D98
:10454000818F08951F920F920FB60F9211242F930F
:104550008F939F93EF93FF93E0919B03F0919C03C4
:104560008081E091A103F091A20382FD12C09081AD
:104570008091A4038F5F8F732091A503821751F060
:10458000E091A403F0E0E557FC4F958F8093A403DE
:1045900001C08081FF91EF919F918F912F910F909A
:1045A0000FBE0F901F9018951F920F920FB60F928B
:1045B00011242F933F934F935F936F937F938F9328
:1045C0009F93AF93BF93EF93FF938BE893E00E9489
:1045D0008221FF91EF91BF91AF919F918F917F9138
:1045E0006F915F914F913F912F910F900FBE0F9060
:1045F0001F9018958BE893E00E94472121E0892BBA
:1046000009F420E0822F089510928E0310928D03FA
:1046100088EE93E0A0E0B0E080938F039093900346
:10462000A0939103B093920389E791E090938C0358
:1046300080938B0385EC90E090939803809397038D
:1046400084EC90E090939A038093990380EC90E03F
:1046500090939C0380939B0381EC90E090939E0346
:1046600080939D0382EC90E09093A00380939F033E
:1046700086EC90E09093A2038093A1031092A40390
:104680001092A5031092A6031092A703089508950F
:104690000E944B200E9447230E940501C4E7D1E2FB
:1046A0000E94050E2097E1F30E947421F9CF0C942B
:1046B000F72ACF92DF92EF92FF920F931F93CF933F
:1046C000DF936C017A01EB01E60EF71E00E010E0CB
:1046D000CE15DF0561F06991D601ED91FC91019055
:1046E000F081E02DC6010995080F191FF1CFC8010F
:1046F000DF91CF911F910F91FF90EF90DF90CF90BE
:1047000008956115710581F0DB010D900020E9F736
:10471000AD0141505109461B570BDC01ED91FC9155
:104720000280F381E02D099480E090E008950C94DC
:104730008123DC01ED91FC910190F081E02D099441
:1047400065E871E00C9481230F931F93CF93DF935F
:10475000EC010E9481238C01CE010E94A023800FD6
:10476000911FDF91CF911F910F9108958F929F928A
:10477000AF92BF92CF92DF92EF92FF920F931F936F
:10478000CF93DF93CDB7DEB7A1970FB6F894DEBF16
:104790000FBECDBF7C01C42EE52FCB01D22E19A2B6
:1047A00021E02D1510F02AE0D22E8E010F5D1F4F53
:1047B0008D2C912CA12CB12C6C2D7E2FA501940158
:1047C0000E94BB2A8C2DD29E801911240150110900
:1047D0008A3014F4805D01C0895CF8018083211562
:1047E00031054105510521F0C22EE32FCA01E4CF66
:1047F000B801C7010E948123A1960FB6F894DEBFCD
:104800000FBECDBFDF91CF911F910F91FF90EF9021
:10481000DF90CF90BF90AF909F908F900895CF92F0
:10482000DF92EF92FF920F931F93CF93DF93EC01F0
:104830006A017B012115310579F4E881F981019044
:10484000F081E02D642FDF91CF911F910F91FF90A8
:10485000EF90DF90CF9009942A303105E9F477FF8B
:104860001AC06DE20E9499238C0144275527BA0192
:104870004C195D096E097F092AE0CE010E94B6231A
:10488000800F911FDF91CF911F910F91FF90EF90BB
:10489000DF90CF9008952AE0B701A601CE01DF9105
:1048A000CF911F910F91FF90EF90DF90CF900C94DC
:1048B000B6232115310541F4DC01ED91FC91019005
:1048C000F081E02D642F09940C94B6239A01462FB1
:1048D00050E060E070E00C9459244F925F926F9228
:1048E0007F928F929F92AF92BF92CF92DF92EF9280
:1048F000FF920F931F93CF93DF93EC016A017B012B
:10490000B22E9A01AB01C701B6010E94AF298823DC
:1049100019F068E871E027C026013701E89477F8BC
:104920002FEF3FEF4FE75FE7C301B2010E94AF29CE
:1049300081110DC02FEF3FEF4FE75FE7C301B201D9
:104940000E94102718161CF46CE871E00CC02FEFC1
:104950003FEF4FE75FE4C701B6010E94B028181689
:10496000ACF460E971E0CE01DF91CF911F910F911E
:10497000FF90EF90DF90CF90BF90AF909F908F907F
:104980007F906F905F904F900C9481232FEF3FEFBB
:104990004FE75FECC701B6010E94102787FDE1CF0A
:1049A00020E030E0A901C701B6010E94102787FF6F
:1049B0000AC06DE2CE010E9499238C01F7FAF094AF
:1049C000F7F8F09402C000E010E0A12C60E070E085
:1049D00080E09FE3AB1441F020E030E040E251E49E
:1049E0000E941427A394F6CF9B01AC01C701B60126
:1049F0000E9433266B017C010E9481272B013C0120
:104A00000E94AD279B01AC01C701B6010E9432266E
:104A10006B017C012AE0B301A201CE010E94B62302
:104A2000080F191FBB2039F064E971E0CE010E9424
:104A30008123080F191F7B2C772041F120E030E003
:104A400040E251E4C701B6010E94BB286B017C0122
:104A50000E947C274B01AA2497FCA094BA2C2AE040
:104A600030E0B501A401CE010E940F24080F191FE8
:104A7000C501B4010E94AF279B01AC01C701B6017B
:104A80000E9432266B017C017A94D6CFC801DF9157
:104A9000CF911F910F91FF90EF90DF90CF90BF903B
:104AA000AF909F908F907F906F905F904F90089500
:104AB0000C946D240F931F93CF93DF93EC010E940E
:104AC0006D248C01CE010E94A023800F911FDF91E5
:104AD000CF911F910F910895FC01808191810C94D9
:104AE0008F2BCF93DF93EC0188819981009711F090
:104AF0000E948F2B198218821D821C821B821A82AF
:104B0000DF91CF9108950F931F93CF93DF93EC0123
:104B10008B016F5F7F4F888199810E941E2C0097C7
:104B200031F0998388831B830A8381E001C080E090
:104B3000DF91CF911F910F910895CF93DF93EC01F7
:104B400088819981892B29F08A819B818617970713
:104B500060F4CE010E948325882341F08C819D81E1
:104B6000892B19F4E881F981108281E0DF91CF91DE
:104B70000895EF92FF920F931F93CF93DF93EC0171
:104B80007B018A01BA010E949D25811104C0CE01DA
:104B90000E94712507C01D830C83B701888199810C
:104BA0000E94F12CCE01DF91CF911F910F91FF90C8
:104BB000EF900895FC0111821082138212821582F7
:104BC00014826115710559F0FB0101900020E9F78D
:104BD000AF0141505109461B570B0C94B92508955C
:104BE000CF93DF93EC01FB018617970761F060819B
:104BF00071816115710529F0448155810E94B925A3
:104C000002C00E947125CE01DF91CF9108950F93CC
:104C10001F93CF93DF93EB0141155105E9F02097E6
:104C2000D9F0FC016481758126173707A0F4621B57
:104C3000730B8A01015011096017710708F48B0189
:104C4000FC0160817181620F731FA801CE010E9477
:104C5000F82CC00FD11F1882DF91CF911F910F91B7
:104C6000089508955058BB27AA270ED03FC230D2CE
:104C700030F035D220F031F49F3F11F41EF4EFC133
:104C80000EF4E095E7FBE5C1E92F41D280F3BA17B6
:104C9000620773078407950718F071F49EF559C2EF
:104CA0000EF4E0950B2EBA2FA02D0B01B901900147
:104CB0000C01CA01A0011124FF27591B99F0593F8B
:104CC00050F4503E68F11A16F040A22F232F342FD3
:104CD0004427585FF3CF469537952795A795F04021
:104CE0005395C9F77EF41F16BA0B620B730B840B36
:104CF000BAF09150A1F0FF0FBB1F661F771F881FEE
:104D0000C2F70EC0BA0F621F731F841F48F4879545
:104D100077956795B795F7959E3F08F0B3CF939534
:104D2000880F08F09927EE0F9795879508959F9320
:104D30009F77EEE389379E0720F4E8E6F0E0B7D1ED
:104D400009C048D19058A2EA2AED3FE049EC5FE360
:104D50009BDFCCD10F9007FC90580895B9D158F043
:104D600080E891E009F49EEFBAD128F040E851E0E4
:104D700059F45EEF09C073C1ECC1E92FE078C7D1E7
:104D800068F3092E052AC1F3261737074807590784
:104D900038F00E2E07F8E02569F0E025E0640AC03F
:104DA000EF6307F8009407FADB01B9019D01DC010C
:104DB000CA01AD01EF9347D099D10AD05F91552335
:104DC00031F02BED3FE049E450FD49EC4CCF089524
:104DD000DF93DD27B92FBF7740E85FE3161617068C
:104DE00048075B0710F4D92FBFD19F938F937F9310
:104DF0006F93B2D2ECE7F0E035D178D12F913F91AB
:104E00004F915F91C4D1DD2349F09058A2EA2AED79
:104E10003FE049EC5FE3D0785D2736DFDF9166C184
:104E2000F4D008F481E008950CD060C158D140F06E
:104E30004FD130F021F45F3F19F00BC151118AC1FD
:104E40000EC165D198F39923C9F35523B1F3951B8E
:104E5000550BBB27AA2762177307840738F09F5F9B
:104E60005F4F220F331F441FAA1FA9F333D00E2E0A
:104E70003AF0E0E830D091505040E695001CCAF777
:104E800029D0FE2F27D0660F771F881FBB1F26173C
:104E900037074807AB07B0E809F0BB0B802DBF010F
:104EA000FF2793585F4F2AF09E3F510568F0D1C00D
:104EB00051C15F3FECF3983EDCF38695779567959B
:104EC000B795F7959F5FC9F7880F911D96958795C0
:104ED00097F90895E1E0660F771F881FBB1F6217DF
:104EE00073078407BA0720F0621B730B840BBA0B9D
:104EF000EE1F88F7E095089504D06894B1112AC197
:104F000008950DD188F09F5790F0B92F9927B75188
:104F1000A0F0D1F0660F771F881F991F1AF0BA957D
:104F2000C9F712C0B13081F014D1B1E0089511C1B8
:104F3000672F782F8827B85F39F0B93FCCF3869573
:104F400077956795B395D9F73EF4909580957095D0
:104F500061957F4F8F4F9F4F0895E89409C097FB4D
:104F60003EF490958095709561957F4F8F4F9F4F40
:104F70009923A9F0F92F96E9BB279395F695879584
:104F800077956795B795F111F8CFFAF4BB0F11F447
:104F900060FF1BC06F5F7F4F8F4F9F4F16C08823EE
:104FA00011F096E911C0772321F09EE8872F762F24
:104FB00005C0662371F096E8862F70E060E02AF065
:104FC0009A95660F771F881FDAF7880F9695879551
:104FD00097F90895DF93CF931F930F938B01EC0103
:104FE000E9EAF0E03FD082D09801AE018B01EC01FC
:104FF00060E070E080E89FE335DE70D19801AE019B
:105000000F911F91CF91DF91C2C0990F0008550FEA
:10501000AA0BE0E8FEEF16161706E807F907C0F03E
:1050200012161306E407F50798F0621B730B840B46
:10503000950B39F40A2661F0232B242B252B21F420
:1050400008950A2609F4A140A6958FEF811D811DC0
:10505000089597F99F6780E870E060E008959FEFFA
:1050600080EC0895DF93CF931F930F93FF92EF92FD
:10507000DF927B018C01689405C0DA2EEF0187D0A6
:10508000FE01E894A5912591359145915591AEF396
:10509000EF01FADDFE019701A801DA9479F7DF90BC
:1050A000EF90FF900F911F91CF91DF9108959F9303
:1050B0008F937F936F93FF93EF939B01AC015BD032
:1050C000EF91FF91CFDF2F913F914F915F9153C0AF
:1050D00000240A94161617061806090608950024D7
:1050E0000A9412161306140605060895092E039451
:1050F000000C11F4882352F0BB0F40F4BF2B11F4C5
:1051000060FF04C06F5F7F4F8F4F9F4F089557FD23
:105110009058440F551F59F05F3F71F04795880F25
:1051200097FB991F61F09F3F79F0879508951216BC
:1051300013061406551FF2CF4695F1DF08C0161668
:1051400017061806991FF1CF869571056105089419
:105150000895E894BB2766277727CB0197F9089530
:1051600054DF08F48FEF08959B01AC0160E070E01C
:1051700080E89FE359CE0BD0B9CFAADF28F0AFDF8C
:1051800018F0952309F065CF6ACF1124E3CFBFDF74
:10519000A0F3959FD1F3950F50E0551F629FF0014A
:1051A000729FBB27F00DB11D639FAA27F00DB11DA3
:1051B000AA1F649F6627B00DA11D661F829F22272C
:1051C000B00DA11D621F739FB00DA11D621F839FB3
:1051D000A00D611D221F749F3327A00D611D231F89
:1051E000849F600D211D822F762F6A2F11249F57D7
:1051F00050408AF0E1F088234AF0EE0FFF1FBB1FFA
:10520000661F771F881F91505040A9F79E3F510598
:1052100070F01FCF9FCF5F3FECF3983EDCF3869595
:1052200077956795B795F795E7959F5FC1F7FE2B43
:10523000880F911D9695879597F90895FA01EE0FBD
:10524000FF1F30962105310599F16115710561F453
:105250008038BFE39B0749F168949038810561F07D
:105260008038BFEF9B0741F0992342F5FF3FE105EE
:105270003105210511F1E8940894E795D901AA2395
:1052800029F4AB2FBE2FF85FD0F310C0FF5F70F48E
:10529000A695E0F7F73950F019F0FF3A38F49F7708
:1052A0009F930CD00F9007FC905808953EF0D7CEF6
:1052B00060E070E080E89FE308954FE79F775F9399
:1052C0004F933F932F93D0D02F913F914F915F9168
:1052D00052DF4EC011F40EF4C2CE76C020DFD0F300
:1052E0009923D9F3CEF39F57550B87FF7BD000242A
:1052F000A0E640EA900180585695979528F4805C86
:10530000660F771F881F20F026173707480730F4ED
:10531000621B730B840B202931294A2BA695179405
:105320000794202531254A2758F7660F771F881FD5
:1053300020F026173707480730F4620B730B840BF5
:10534000200D311D411DA09581F7B901842F915881
:10535000880F9695879508959B01AC010CCF55DE7B
:10536000880B990B089519F40EF073CEF2CE77CE18
:10537000D6DEC8F39638C0F707F80F92E8942BE30F
:105380003AEA48EB5FE705DF0F920F920F924DB7B5
:105390005EB70F92A9D0E1EDF0E064DE4F915F912E
:1053A000EF91FF91E595EE1FFF1F49F0FE57E06872
:1053B0004427EE0F441FFA95E1F74195550B1BD09A
:1053C0000F9007FED1CE08959F3F31F0915020F409
:1053D000879577956795B795880F911D96958795D1
:1053E00097F9089591505040660F771F881FD2F7A4
:1053F00008952FCEE9CF93DEE8F39923D9F3940FE4
:10540000511DBBF39150504094F059F0882332F075
:10541000660F771F881F91505040C1F79E3F51057E
:1054200044F7880F911D9695879597F908955F3FEA
:10543000ACF0983E9CF0BB27869577956795B7951D
:1054400008F4B1609395C1F7BB0F58F711F460FFF2
:10545000E8CF6F5F7F4F8F4F9F4FE3CF7BCE0EF034
:10546000B3CFFDCD6894F5CD5ADEC8F39923D1F3BF
:10547000C6F3DF93CF931F930F93FF92C92FDD27BE
:1054800088232AF02197660F771F881FDAF720E01C
:1054900030E040E85FEB9FE3883920F0803E30F059
:1054A00021968F77E0DBE9EFF0E003C0DCDBE6E29A
:1054B000F1E0D8DD8B01BE01EC01FB2E6F577109C5
:1054C0007595771F880B990B4ADD28E132E741E398
:1054D0005FE35DDEAF2D9801AE01FF900F911F914C
:1054E000CF91DF91D1DB02CEFA01DC01AA0FBB1F05
:1054F0009B01AC01BF5728F422273327442750785B
:105500001FC0B75188F4AB2F0024469537952795D7
:10551000011CA395D2F3002069F0220F331F441F12
:10552000B395DAF30DD09ECB61307105A0E88A0700
:10553000B94630F49B01AC0166277727882790781D
:10554000309621F02083318342835383089597FB63
:10555000072E16F4009407D077FD09D00E94DD2AAB
:1055600007FC05D03EF4909581959F4F0895709566
:1055700061957F4F0895A1E21A2EAA1BBB1BFD0166
:105580000DC0AA1FBB1FEE1FFF1FA217B307E40722
:10559000F50720F0A21BB30BE40BF50B661F771F7A
:1055A000881F991F1A9469F760957095809590955A
:1055B0009B01AC01BD01CF010895AA1BBB1B51E1AA
:1055C00007C0AA1FBB1FA617B70710F0A61BB70B73
:1055D000881F991F5A95A9F780959095BC01CD0118
:1055E0000895EE0FFF1F0590F491E02D0994CF93DD
:1055F000DF938230910510F482E090E0E0912A047C
:10560000F0912B0420E030E0A0E0B0E0309739F1D9
:105610004081518148175907B8F04817590771F46C
:1056200082819381109729F013969C938E93129701
:105630002CC090932B0480932A0427C02115310598
:1056400031F04217530718F0A901DB0101C0EF0147
:105650009A01BD01DF010280F381E02DD7CF211532
:105660003105F9F0281B390B2430310580F48A818B
:105670009B816115710521F0FB019383828304C036
:1056800090932B0480932A04FE01329644C0FE01BD
:10569000E20FF31F819391932250310939832883BC
:1056A0003AC02091280430912904232B41F4209101
:1056B00002013091030130932904209328042091A2
:1056C0000001309101012115310541F42DB73EB79C
:1056D0004091040150910501241B350BE0912804F1
:1056E000F0912904E217F307A0F42E1B3F0B2817B3
:1056F000390778F0AC014E5F5F4F2417350748F04B
:105700004E0F5F1F50932904409328048193919377
:1057100002C0E0E0F0E0CF01DF91CF910895CF9398
:10572000DF93009709F487C0FC013297138212823D
:10573000C0912A04D0912B04209781F420813181DB
:10574000280F391F8091280490912904821793070C
:1057500079F5F0932904E09328046DC0DE0120E080
:1057600030E0AE17BF0750F412964D915C9113973D
:105770009D014115510509F1DA01F3CFB383A283ED
:1057800040815181840F951F8A179B0771F48D9179
:105790009C911197840F951F029691838083129696
:1057A0008D919C911397938382832115310529F460
:1057B000F0932B04E0932A043EC0D9011396FC9386
:1057C000EE9312974D915D91A40FB51FEA17FB0759
:1057D00079F480819181840F951F0296D9011196E9
:1057E0009C938E938281938113969C938E931297B0
:1057F000E0E0F0E08A819B81009719F0FE01EC0166
:10580000F9CFCE01029628813981820F931F209112
:105810002804309129042817390769F4309729F4AE
:1058200010922B0410922A0402C013821282D09389
:105830002904C0932804DF91CF910895A0E0B0E03F
:10584000E4E2FCE20C940B2DEC01CB01209719F45F
:105850000E94F72AB8C0FE01E60FF71F9E012250F2
:105860003109E217F30708F4ACC0D9010D911C917E
:10587000119706171707B8F00530110508F49FC0F7
:10588000A801445051094617570708F498C0025020
:105890001109061B170B019311936D937C93CF0194
:1058A0000E948F2B8CC05B01A01AB10A4E01800EA2
:1058B000911EA0912A04B0912B04612C712C60E000
:1058C00070E0109709F449C0A815B905C9F5ED9025
:1058D000FC901197670142E0C40ED11CCA14DB048E
:1058E00078F147018A189B08640142E0C40ED11C7C
:1058F0001296BC9012971396AC91B5E0CB16D104DA
:1059000040F0B282A38391828082D9018D939C93CF
:1059100009C00E5F1F4F0E0D1F1DF901118300837B
:10592000EB2DFA2F6115710531F0DB011396FC9315
:10593000EE93129744C0F0932B04E0932A043FC0E7
:105940006D917C9111976616770608F43B01BD01B5
:1059500012960D90BC91A02DB4CF60912804709147
:10596000290468157905E9F468167906D0F44091A0
:105970000001509101014115510541F44DB75EB749
:105980006091040170910501461B570BE417F50760
:10599000C0F4F0932904E0932804F90191838083F3
:1059A0000EC00E94F72A7C01009759F0A801BE01A1
:1059B0000E94E82CCE010E948F2BC70104C0CE01AB
:1059C00002C080E090E0CDB7DEB7EEE00C94272D6A
:1059D000FB01DC0102C001900D9241505040D8F70C
:1059E0000895FB01DC0101900D920020E1F708957C
:1059F000FB01DC014150504048F001900D92002025
:105A0000C9F701C01D9241505040E0F708952F9210
:105A10003F924F925F926F927F928F929F92AF923E
:105A2000BF92CF92DF92EF92FF920F931F93CF938B
:105A3000DF93CDB7DEB7CA1BDB0B0FB6F894DEBF22
:105A40000FBECDBF09942A88398848885F846E8448
:105A50007D848C849B84AA84B984C884DF80EE8092
:105A6000FD800C811B81AA81B981CE0FD11D0FB69B
:105A7000F894DEBF0FBECDBFED01089511E0C4EB79
:105A8000D1E004C0FE010E94F32A2296C63BD10752
:065A9000C9F7F894FFCFF6
:105A960000002C048000060000803F00000000008B
:105AA60000000000000000506974636820616E64A5
:105AB60020526F6C6C000048656164696E673A201D
:105AC6000050697463682C20526F6C6C3A20002C6D
:105AD60020004C4C4C3D3A00205061796C6F61645B
